:0200000270008C
:10800000000001205DBF070085BF070087BF070094
:1080100089BF07008BBF07008DBF0700000000006D
:1080200000000000000000000000000009B207008E
:1080300091BF07000000000093BF070095BF070035
:1080400041BE070097BF070097BF070097BF070013
:1080500097BF070097BF070097BF070097BF0700AC
:1080600097BF070097BF070097BF070097BF07009C
:1080700097BF070097BF070097BF070097BF07008C
:1080800097BF07004588070097BF070097BF070005
:10809000B989070097BF070055A0070097BF0700E1
:1080A00097BF070097BF070097BF070097BF07005C
:1080B00097BF070097BF0700000000000000000006
:1080C00097BF070097BF070097BF070097BF07003C
:1080D00097BF070097BF070097BF07000000000089
:1080E0000000000000000000000000000000000090
:1080F0000000000000000000000000000000000080
:10810000000000000000000000000000000000006F
:10811000000000000000000000000000000000005F
:10812000000000000000000000000000000000004F
:10813000000000000000000000000000000000003F
:10814000000000000000000000000000000000002F
:10815000000000000000000000000000000000001F
:10816000000000000000000000000000000000000F
:1081700000000000000000000000000000000000FF
:1081800000000000000000000000000000000000EF
:1081900000000000000000000000000000000000DF
:1081A00000000000000000000000000000000000CF
:1081B00000000000000000000000000000000000BF
:1081C00000000000000000000000000000000000AF
:1081D000000000000000000000000000000000009F
:1081E000000000000000000000000000000000008F
:1081F000000000000000000000000000000000007F
:1082000010B5054C237833B9044B13B10448AFF3D0
:1082100000800123237010BDD8280020000000003A
:1082200010D70700084B10B51BB108480849AFF339
:1082300000800848036803B910BD074B002BFBD032
:10824000BDE81040184700BF0000000010D707002D
:10825000DC280020C028002000000000154B002B67
:1082600008BF134B9D46A3F5803A00218B460F466D
:108270001348144A121A05F028F80F4B002B00D0AF
:1082800098470E4B002B00D0984700200021040097
:108290000D000D48002802D00C48AFF3008004F018
:1082A000D3FF2000290001F0E1FA04F0B9FF00BF7C
:1082B0000000080000000120000000000000000095
:1082C000D8280020E034002000000000000000005A
:1082D000034B0122187A5A74B0FA80F040097047B3
:1082E000302A0020024B187A003018BF0120704756
:1082F000302A0020002070470846704730B50E4BEA
:10830000012153E8002F42EA010443E8004595F0BB
:10831000000FF6D16AB90949416009490978197411
:10832000084B09499A6083E80600FC229A811C22C6
:10833000DA81002030BD00BF302A002008D30700BA
:10834000D82F002010330020F428002070B50568D5
:10835000AB6886B004460E46DBB101A800211422AA
:1083600004F0B3FFA3680593237902963BB1012B78
:108370000CD102238DF80430E3681B0303E00123D2
:108380008DF804302369039363690493AB6801A8F3
:10839000984706B070BD28DF704729DF7047034B50
:1083A0001868003018BF0120704700BF203300203C
:1083B0000020704708467047014B4360002070471B
:1083C00014D3070007B500211422114804F07DFFE3
:1083D000104B53E8021FD888B1EB314F4FF0000229
:1083E00017BF89B240EA004041EA004004E0596802
:1083F000B1EB314F08BF012243E802010029E8D167
:108400008DF807209DF80730002003B05DF804FBCD
:10841000302A00201033002008B510461A4604F018
:1084200049FF002008BD08B510461A4604F042FF77
:10843000002008BD2DE9F0410E461F4686B00546D6
:1084400090460121144B53E8004F44EA010243E8EF
:10845000002090F0000FF6D1CCB9444505D006EBD2
:10846000043003F0AFFC0134F7E703F061F8AB68C8
:10847000002553B1022201A88DF80420029503962D
:10848000049405979847284602E0184600E011201A
:1084900006B0BDE8F08100BF2033002008B503F02E
:1084A00047F8002008BD2DE9F041804686B00F4610
:1084B0001E460124124850E8005F45EA040340E8E4
:1084C000003191F0000FF6D1B5B911463846B20827
:1084D00003F056FC03F02CF8D8F8082052B10C9B9E
:1084E0008DF8044001A802950397049605939047E0
:1084F000284602E0104600E0112006B0BDE8F081F9
:108500002033002073B5324C3249237A002B2BD113
:10851000314A52E8023F1FFAA3F6D588AE4202BFA5
:10852000BFF32F8F00200DE0D5892E449589AE42F0
:1085300028BF761BC3EA064642E80265002DE8D153
:108540004FF001008DF803000193019B9DF803009B
:10855000C1F8FC3000F0FF0318B1B1F8FE3012682A
:108560001344C1F8003183B30223D1F800512372C0
:108570002B793BB1012B22D12869EB681844FFF716
:108580000AFF0FE0AB696A692869E968D21A142A00
:1085900028BF14229208012A1844194438BF012226
:1085A000FFF7FBFE014620B1112808D101232372F9
:1085B0000CE0237C53B9022000F010F806E02846B6
:1085C0000321FFF7C3FE00232372636002B070BD76
:1085D000302A0020F42800201033002038B53C4C0D
:1085E000237A012B43D0022B70D1022802D003281A
:1085F0001AD03CE0374B0022D3F80031E2601A7900
:108600003AB1012A33D11A6901321A615B699A427F
:1086100008E09A6959698D1A142D94BF52191432C1
:108620009A618A4223D107E0E3680133082B01D81D
:10863000E3601CE00023E360264D02284FF00003B6
:108640000CBF19460D21D5F800012372FFF77EFEFD
:10865000B5F8FC20B5F8FE309A4208D11E4B53E81D
:10866000021FC1EA214143E80212002AF7D1637CCC
:1086700013B9BDE8384045E7184C237833B3184D9B
:108680002B78FBB10120207001F038FD11281DD09E
:10869000022001F017FD01F099FDB8B9114B2870C7
:1086A0009A68207022B11A6822F480021A6004E0ED
:1086B0000D4B4FF48002C3F880200320BDE8384002
:1086C00001F000BDBDE8384001F038BD38BD00BF45
:1086D000302A0020F428002010330020D92F002059
:1086E000D82F0020F831002000E100E013B5094B3D
:1086F000012253E8001F104643E8000494F0000FE5
:10870000F7D10191019A1AB95B7B0BB9FFF7FAFE19
:1087100002B010BD342A00202DE9F347824601A89B
:108720000D469046994602F0ADFE00B3124BBDF8DF
:1087300004601F68BC191AD01C222046002104F0D6
:10874000C4FD0123237147F806A0BDF80420BDF83D
:108750000630C4F808902D0B9A42E560C4F81480E6
:1087600001D102F0B5FEFFF7C1FF002000E00420B8
:1087700002B0BDE8F08700BF103300202DE9F347B9
:10878000824601A8894690461F4602F07BFE08B348
:10879000124BBDF804501E6874191BD01C222046D1
:1087A000002104F092FD0023237146F805A00A9BE6
:1087B000A360BDF80420BDF80630C4F810909A42BA
:1087C000C4F80C80676101D102F082FEFFF78EFFD2
:1087D000002000E0042002B0BDE8F0871033002044
:1087E00030B512B11368DB4301E04FF0FF330144B1
:1087F00088420DD010F8012B53400822054D13F08C
:10880000010418BF2C46013A84EA5303F6D1EFE77E
:10881000D84330BD2083B8ED10B5084B9A685AB1E3
:1088200050B9EFF3108272B605491C680C605C68A1
:108830004C60986002B962B6002010BDF83100208B
:1088400000E100E070B5204A204B0021C2F8401141
:10885000C2F84411C2F84811C2F84C11C2F8001114
:10886000C2F804111B6873B31948D2F804250468D0
:10887000141B24F07F440D461A6894420CD3A41AAA
:1088800015441A7CDE6922B100221A7498695A696B
:1088900090470EB13346EFE70E4B0F4A1978137825
:1088A0008B4205D10133DBB2022B08BF00231370CA
:1088B00012780A4B03EB82034FF48012C3F8045181
:1088C000074BC3F8002170BD001001407C2E002032
:1088D000842E0020802E0020812E0020F4280020ED
:1088E00000E100E0094A537891780133DBB2994204
:1088F00008BF0023117899421FBF037053781820D6
:1089000000FB032014BF0430002070470432002015
:1089100073B5154EB378054613B308B34369FBB17D
:108920000024047402A800F8014D02F0FBFC0DF1D4
:108930000600FFF7D7FF30B1022303709DF8063021
:108940004560737000E004249DF80700FFF764FFA2
:1089500024B9064B4FF48012C3F80021204600E0F2
:10896000082002B070BD00BF0432002000E100E02A
:1089700038B50D4B0D4C4FF40032C3F88020012563
:108980004FF48033C4F84833C4F80833656002F00C
:10899000EFFC074BA56000241C6002F0E9FC054BCE
:1089A00083F80C4138BD00BF00E100E00010014039
:1089B000842E0020F42800202DE9F74F9A4A9B4985
:1089C000137809789A4F9B4E3C68994232D0013314
:1089D000DBB2022B08BF002313701278964B03EB17
:1089E00082030025D3F804110B1923F07F433B6069
:1089F000AC463368DBB11A68914202D2521A1A604F
:108A000015E0891A944400221A60D3F80CE0894AD0
:108A1000D8691060BEF1000FEBD00CEB040222F01D
:108A20007F42DD615A60C3F808E01D46E1E74FF080
:108A3000010801E00025A846336801934FF0000AC1
:108A400055B12C46ED6930E0D6F800B05B46D9460A
:108A5000002B63D10023237478494B780A78934222
:108A60000B4667D08C78501CC0B28442087008BF97
:108A70000D70182101FB02331A799C68022AE3D099
:108A8000032A49D0012AE7D1217C0029E4D1DA6800
:108A900062601A69A2605A69E26010339B68A36140
:108AA000654B93F80D3103B1616060683A68831AD1
:108AB00023F07F41624B9942A36801D80B4406E042
:108AC000121A22F07F4293428CBF9B1A002323602C
:108AD00000236360A360E361336856480122227477
:108AE00033B121681A68914204D8521A1A60E361BE
:108AF0000460A5E718461A68914205D9891ADA690F
:108B000018462AB11346F6E7521A1A601A46034667
:108B10002160E261DC6193E7336804E0A34265D041
:108B20009946DB6994E71BB100221A74DB69FAE706
:108B3000336091E7404DBAF1000F06D13368019AD6
:108B4000934202D1B8F1000F4AD03368002B45D0D0
:108B50003C4E3C68D6F80485D3F800A095F80C315B
:108B6000C4EB080727F07F470337A3B9364A4FF411
:108B700080334FF400314FF00109C6F84433C6F892
:108B80000433C2F880111160C6F8009002F0F0FBC7
:108B9000294B83F80C9157452CBFE31904EB0A03CA
:108BA00023F07F44C6F84045D6F80435254AC8EB83
:108BB000030323F07F43C8EB0404033324F07F4412
:108BC000A3420DD9D2F80435C2F8403502F0D0FBEB
:108BD0001D4B4FF40032C3F8002101E0FFF7C8FE3F
:108BE000002385F80D3103B0BDE8F08FA1450CD10D
:108BF000DBF81C30336043B9124901228A603B60C4
:108C00000D4B83F80D2102F0B3FBE2692168C9F82E
:108C10001C2012B113680B44136033689B4518BFC6
:108C20004FF0010A16E700BF802E0020812E0020A1
:108C3000842E00207C2E0020F42800200432002006
:108C4000FEFF7F000010014000E100E05B689A68D1
:108C5000054B9A4206D14268836804490132013BC0
:108C60000A604B60704700BF20D30700042A002031
:108C7000104B1B7870B5E3B10F4B104CE41AE408AD
:108C800000251E46A54204D006EBC5035B68984745
:108C900058B1BFF34F8F0A490A4BCA6802F4E06229
:108CA0001343CB60BFF34F8F01E00135EAE700BF0C
:108CB000FDE770BD1530002014D707001CD7070052
:108CC00000ED00E00400FA0508B50748FFF720FEB4
:108CD00008B100F055FD04484FF4701102F08EFB0E
:108CE0000028F6D108BD00BF882E002038B50C4CF6
:108CF000237A9BB90B4B9B786BB1237F5BB92377AE
:108D00000125094B6577236204F10C0040F266618E
:108D100002F074FB08B100F033FD257238BD00BFCE
:108D2000042A002004320020718C070000F0FD03AB
:108D3000012B0AD1054B002283F83D20421E5042F0
:108D4000504183F83C00FFF7DDBB7047042A002048
:108D500070B50D4B0D4C9A6B0D4E0E4921645C3372
:108D6000636404F150050C4BA264E36430460023B5
:108D700029462360636002F065FD04F1400031463E
:108D80002A4602F0A7FE70BD24330020042A0020EA
:108D900098D30700C5AC07004D8C07002DE9F043C0
:108DA000A84B1B78012B87B004460D4603D0022B3D
:108DB00000F091819FE30378013B052B00F2A9832A
:108DC000DFE813F00600220042001D00A703810126
:108DD00083681BB3B3F5807F01D90424A2E39A48CA
:108DE000FFF796FD0025994B99481D7020222946D2
:108DF00004F06BFA974B1D63A2689A638DE3964B60
:108E0000DA6B4A601B6C1DE0934E8268F06BB36BAB
:108E10008118994204D96860336CAB60032481E304
:108E2000304461685C3004F045FAF36BA7681F4476
:108E3000F7636068A16806F14002FFF7D1FC306477
:108E40006F60336CAB6066E3834BD96B9A6B914276
:108E50001E4601D0082465E37C4F3B78002B40F090
:108E60005A83FFF775FF012840F045837B4B93F849
:108E7000F4201C46002A00F01F8193F8FA30002BE2
:108E800000F0458394E80600002900F00681002ADE
:108E900000F0038194F88B3123B194F88C31002BCE
:108EA00040F03D8394F804316C48002B00F0F580CD
:108EB000D0F80831342B04D00622694B0B241A70E9
:108EC0002EE390F85131032B1FD090F80CE10025D0
:108ED00000F58670754580F2128343F20C0C50F851
:108EE000048FBCF800C0E04501D00135F2E7032B48
:108EF00000F2D380DFE803F0021F090994F8FC3088
:108F0000002B00F0CA80B0680AE094F8FC0000284A
:108F100000F0C380F0681BB1023B012B0BD805E0C9
:108F2000D4F80031834206D20522C6E74B4BD3F872
:108F300000318342F8D994F89831484E002B53D130
:108F4000484B494D18785B7840EA03202B4602F0E5
:108F500047FB002840F0E382EA6896F899319A428C
:108F600040F0DD8206F5CD71A86804F0A3F903F0A6
:108F7000E9FF2B698046002B00F0C982296800298F
:108F800000F0C582AA68002A00F0C1820B439B074B
:108F900040F0BD8212F0030640F0B9822023039313
:108FA0000520402305A90293049300F0DBFE00286E
:108FB00040F0AD826A69029B9A4240F0A8826A68DA
:108FC00005998A4240F0A382E8680499884240F0FB
:108FD0009E82CDF8008028692968AB6803F0B6FF4F
:108FE000002800F0948203E01D4B0B241C7097E2D4
:108FF0001E4A94F8513116601646032B4DD8DFE80F
:1090000003F002190A3994F86031002B45D0134B54
:10901000D3F8643114E094F85831002B3DD00F4B55
:10902000D3F85C213260124BC3F5FC239A4236D947
:10903000042475E294F852317BB3084BD3F85431D1
:1090400033602CE05228002020300020BC2F00206C
:109050005C3300202433002024330020042A002025
:10906000BD2F002058D5070030280020B82F002041
:109070000080070094F858219E4B72B193F852215A
:109080005AB1D3F85411D3F85C215318336009B99D
:10909000032445E2002AFBD0C5E704220DE7A869B6
:1090A0009549202204F006F930680028F0D002F03B
:1090B00053FA0028BCD124E293F85030002B00F082
:1090C0001A820322F9E68D4BDA6B4A601B6C8B60C7
:1090D0004FF480730DE20378013B052B00F21982F7
:1090E000DFE813F006004B00160102011702000230
:1090F0008268002A3FF492AEC2F30B033BB17F4B70
:109100007F495B6D096813448B427FF487AEB2F5EB
:10911000805F3FF662AE7B4B1B78002B3FF49AAE2C
:10912000764B7749586D096802448A423FF692AE01
:10913000DA6C9A64A2685A645A691865186302B9AD
:109140001A626C4AA16892F8DC31013303F0030320
:1091500082F8DC310023A2F8DE316B4B6B4A1D68CC
:10916000136801F6FF7101332844090B136002F004
:10917000BBF9002840F0BF81CFE1604E336D4B60FA
:10918000B36C8B605F4B1B78002B3FF463AE816840
:1091900080293FF622AE376D736D7A18D21A736C40
:1091A0009A423FF63BAE406806F14802FFF718FBD3
:1091B000B064A3683B4433656B604E4FB36CAB60E7
:1091C000B7F8DE01A26883187F2B07F5F07997F8CE
:1091D000DC310CD800EBC3104844616804F06AF835
:1091E000B7F8DE31A2681344A7F8DE3149E0C0F1D8
:1091F00080081FFA88F800EBC310616842464844B3
:1092000004F058F8A368B7F8DE2197F8DC11C8EB32
:109210000303A3606368434463603B4B306B1B688C
:10922000424492B2184409EBC1110023A7F8DE2191
:1092300001F0F7FE28B9336BB7F8DE21134433632E
:1092400006E0F36CB364736D33656B60F36CAB6015
:1092500097F8DC01A268DFF89C80013000F0030081
:10926000002387F8DC01A7F8DE3152B109EBC0100A
:10927000616804F01FF8B8F8DE31A2681344A8F85A
:10928000DE31B7F8DE21DFF86C80002A00F0438180
:10929000736D306B716C194CD31A03448B42C0F060
:1092A0003A81194B98F8DC111B6809EBC11118447D
:1092B000002301F0B6FE28B9236BB8F8DE21134471
:1092C000236306E0E36CA364636D23656B60E36C6A
:1092D000AB6097F8DC31013303F0030387F8DC312E
:1092E0000023A7F8DE3116E1044B1A6D4A609B6C2F
:1092F000A8E500BF042A00206F2B002024330020A3
:10930000B82F0020BC2F0020DC3400201C300020AF
:10931000864D2A6D6B6D696CD31A99427FF49AADB4
:109320000020AB6C68646A65EB6401F0AFFE002856
:1093300040F0E3807E4F2A6D3B689A4240F0ED801A
:109340007C4E96F86931032B1BD17B490B78497809
:10935000000C43EA012300041843784B1968784B4A
:1093600002F03EF9774B002806F26B1198694FF036
:1093700020020CBF01240A2403F08CFF28B10C2228
:1093800000E00922704B0B241A70D5F814E0BEF1EE
:10939000000F05D0BEF1010F40F0C1806B4B00E023
:1093A0006B4B96F85121032A00F28180DFE802F02E
:1093B0004E024E264FF440510978142989BF43F2DA
:1093C000140100200868634988BFB0FBF1F05B49D5
:1093D000096801F5005E9EF800E0BEF1140F89BF38
:1093E00042F2140E002151F80E10DFF868E188BF38
:1093F000B1FBFEF1884237D0052459E04FF44051CB
:109400000978142989BF43F21401002008685149E2
:1094100088BFB0FBF1F04949096801F5005C9CF890
:1094200000C0BCF1140F89BF42F2140C002151F8A6
:109430000C10DFF820C188BFB1FBFCF188421FD0BF
:10944000BEF1010F1CD10021296219E0012C2FD19E
:10945000012A0BD0022A10D09C606A69012A1BD114
:10946000324A0021116217E0012C21D1A521996017
:10947000D6F854116963012409E0AA229A600FE02A
:10948000012C15D1AC219960D6F8541169631AB139
:10949000023A012A07D803E0D6F80021AA6002E0C8
:1094A000D6F80021EA60AA6C5A603A6803E00A2400
:1094B00000229A605A601A6000212022264803F098
:1094C00004FFFF21FC22254803F0FFFE00232B634D
:1094D000234B244801221A7001F0D8FD002818BF40
:1094E0000A241DE0114B9A6C8A601B6D4B604FF48F
:1094F00080532B600FE0052414E00A2412E00722B9
:10950000DBE401F0C3FD50B901243C7008E0052400
:1095100006E0022406E0012404E0012400E00A241D
:10952000FFF7D2FB204607B0BDE8F08324330020CC
:10953000B82F0020042A002058D50700DC34002072
:109540004828002030280020BD2F0020483300206C
:109550003C33002040420F005C3300208033002069
:1095600014300020ED8C0700416841B10268936817
:109570000B4443605268934204BF0023436070472A
:109580002DE9F04F0022C9B00C468D5CE37843EA28
:109590000563657843EA0543A57843EA052308ADEA
:1095A0000434AB500432402AEFD12A463023916B69
:1095B000576A92E860004FEA714484EAF14484EA11
:1095C00091242F443D194FEAF61484EAB64484EA04
:1095D000D6012944013B116402F10402E7D1426D36
:1095E0000192826D0292C26D0392026E0492426EEB
:1095F0000592826E0692C26E0792924604AA92E883
:109600000450D0F85080DDF80CB0029E019F444613
:10961000274951F8235008A951F8231005EB0109F7
:109620004FEAB21585EAF22585EA726109EB010578
:109630002EEA02090CEA020189EA01010D4486EAD8
:109640000701AA44214006EA07054D404FEAB4014C
:1096500081EA743181EAB45101332944402B0BEB88
:109660000A0901EB0A05B346F24606D0E6463E4635
:10967000944627464A462C46CAE7019B1C44029B57
:1096800044651F44039B87651E44049BC6654B4489
:109690000366059B1A44069B426663448366079BE8
:1096A000454473440565C36649B0BDE8F08F00BF0B
:1096B000BCD3070008B52D4B18884FF6FF739842AE
:1096C0004AD02B4A1368132143F00403136002F0BD
:1096D00049FB002849D1274B27491A68274B00BF6F
:1096E00000BF00BF00BF00BF00BF00BF00BF8A4275
:1096F0002FD000BF00BF00BF00BF00BF00BF00BF32
:1097000000BF00BF00BF00BF00BF00BF00BF00BF61
:1097100000BF00BF00BF00BF00BF00BF00BF00BF51
:1097200000BF00BF00BF00BF00BF00BF00BF00BF41
:1097300000BF00BF00BF00BF00BF00BF00BF00BF31
:1097400000BF00BF00BF00BF00BF00BF00BF00BF21
:1097500000BF013BC3D108BD02F008FB4FF0A0439E
:109760004FF40032C3F80825002008BD502800201F
:10977000642E0020542800200024F400400D030033
:10978000BFF34F8F0549064BCA6802F4E0621343EA
:10979000CB60BFF34F8F00BFFDE700BF00ED00E0DF
:1097A0000400FA0508B5FFF7EBFF144B30B504468B
:1097B00018884FF6FF7398421ED0114B1D68ED07B5
:1097C0001AD50B2A83F85C2183F85B1104BF93F848
:1097D000592183F85D214FF0600508BF002183F80F
:1097E0005A5108BF83F8591121880CBF0422032263
:1097F000BDE8304001F052B8082030BD50280020AC
:10980000642E0020174B2DE9F0411D884FF6FF73A1
:109810009D420646904621D0134B1A68D2071DD5AB
:10982000602283F85A21032283F85B210846012233
:1098300003F25D1103F5AD7783F85C2102F067FA5E
:10984000033084B23919404602F061FA2218318897
:10985000284692B2BDE8F04101F020B80820BDE8EA
:10986000F08100BF50280020642E00204FF0A0435C
:109870002DE9F04F0322C3F84427C3F84827C3F863
:109880004C27C3F850274FF40032C3F808254FF493
:109890008022C3F808259C4F4FF400224FF480111A
:1098A000C3F80825C3F80815C3F80C25974AC3F870
:1098B000402789B0964B3B6038460021FEF77CFD7F
:1098C0000197064608B1FFF75BFF924D9249284683
:1098D0004FF4DC7203F0EEFC2C68601C06D0281DEF
:1098E00058213246FEF77CFFA0420CD08948002167
:1098F0004FF4DC7203F0E9FC012300206B6001F0FF
:10990000C5FB0028DFD1854C2379002BDBD102F089
:1099100073FA0028D7D1A37903F0FF025BB108AB3B
:1099200003F8040D184601F0FDFC23699DF81C00A6
:109930000133236117E008A800F8052D01F0F2FCBF
:1099400022695AB9764B1A601B680793079B4FF040
:1099500080430222C3F8042301229A6023699DF800
:109960001B0001332361FEF757FF4FF08043D3F80C
:109970001834D903F9D5FEF7FBFF6A496A4800237A
:109980004FF480160B224FF0E00E8A700B704B7074
:10999000A36123776377C0F8806180F814E30660E1
:1099A00006F18046A6F56F265C4AC6F8083580F8B1
:1099B00011E3D6F8043523628B78002B83D092F81C
:1099C0003430002B7FF47FAF82F8343082F83530AA
:1099D000564B93632A694F4943F20803012A1B68D7
:1099E0000CD04A6952B18E6906F6FF7626F47F667E
:1099F00026F00F061E4401F1240802E01E4601F184
:109A00001808D8F80820A52A58D002D8012A05D06D
:109A100094E0AA2A60D0AC2A64D08FE069693D4AFC
:109A2000012940F08B80D2F824A0126B02EB0308CE
:109A3000C2EB0A0916443E4A1368B9F5805F03F188
:109A4000010340464FF001011360CB4628BF4FF49D
:109A5000805B01F049FD0346002852D14046314663
:109A60005A4601F0DEFA00284BD1404631465A46AC
:109A700001F0BCFA002844D12A6B264F5A442A63CD
:109A800001F004FBB9EB0B09D8445E44D3D143F297
:109A90000802514610684A46FEF7A2FEBA6A904292
:109AA00004BF0122F861234804BF3A62C7F818A036
:109AB00001F08EFA002001F0E9FA11E0A86C00280C
:109AC00008BF304601F010FBD8B9404601F080FADB
:109AD000194801F0DBFA12E03046414601F04CFB38
:109AE00000230DE0AB6C002B18BF1E46304601F082
:109AF000FBFA30B9686B4146304401F03DFB01236D
:109B0000E8B101231BE000BFC42800200C000300C3
:109B1000BCD507002433002000F00700642E00208D
:109B2000040100400432002000E100E0E1AC070045
:109B30001C3000204833002095AF070000234FF071
:109B4000A042D2F81025D20311D54FF08042D2F8AE
:109B50001C25D2B2B12A0AD0AA6D012A08D1724BB3
:109B60000020986501F092FA00287FF4ACAE012342
:109B70004FF080420021C2F81C151BB901F0F4F926
:109B8000002837D16948DFF8CC91694EDFF8C881E9
:109B9000DFF8C8A1DFF8C8B1C8F8000000F18803F9
:109BA000C9F80030634B029300221A703270082209
:109BB000AAF80020203810224FF47011ABF80020D2
:109BC00001F01CFC00287FF47EAE5B495B4A521A10
:109BD000D2080346934250D051F8330005920491C5
:109BE0000393804700287FF46EAE039B059A049987
:109BF0000133EFE7D5F85C31013304D14A4BD3F898
:109C00009C31013309D04FF4FE2002F0DBF84FF411
:109C1000FE204549572202F0B3F801F0A5F90028CB
:109C200074D0474B0125C3F880504FF080434FF06C
:109C3000FF32C3F8082302F031F9424B1B7813B10D
:109C400002F07CF90CE0404B1D604FF08043D3F8EC
:109C50000C3403F00113B3F1011FF6D0002363713C
:109C60000023237143F208031C6801F0CCF900289B
:109C70004CD1204601F0B4FA48E0019A334B344805
:109C800013600021FEF73AFBF0B9AB6B264FABB186
:109C9000FFF75EF890B13B6A0BB9BB692BB9EA6A72
:109CA000214B8AB99A697AB15B6AC4F85431D4F805
:109CB000540101F051FC012384F85831002384F849
:109CC000593101E001F0D6FA029A33781278184C33
:109CD0009A42F7D02378D8F80020D9F80010BAF8C3
:109CE0000000DBB21DB202EBC50700FB031052F807
:109CF0003520B98890472378BBF80020DBB29A4220
:109D000086BF0133DBB200233370DDE743F2080383
:109D10001C6801F078F910B9204601F061FA0020C2
:109D200009B0BDE8F08F00BF24330020A82E00202A
:109D3000D02F0020D12F002014D707001CD70700F8
:109D400000E100E0D82F0020040000409CD507006F
:109D5000C4280020DC2F0020D42F0020E02F00207A
:109D6000D22F00200138062811D8DFE800F00410B7
:109D70000406080A0C00142306E01C2304E0202338
:109D800002E0302300E040230B60002070470620F3
:109D90007047000010DF704707B50A4B00930A4A6E
:109DA0000A4B934208BF00230193019B33B15868CB
:109DB0001A6890476846FFF7D7FBF6E703B05DF8EF
:109DC00004FB00BFDCD5070058D7070048D70700C1
:109DD000F0B585B00F468D6869460646144601F019
:109DE00098FD88B1B86878B17B7803F03003202BF8
:109DF00003D12846214601F025FD68462946224622
:109E000001F068FE019B736005B0F0BD2DE9D34FF2
:109E100014466946082201F02AF890B39DF80160C3
:109E20009DF802809DF805A00027002332023B43E5
:109E30004FEA0846002732433B439DF800609DF8F7
:109E4000038000273B439DF804704FEA0A29324300
:109E50009DF806A04FEA086632433B43002643EADA
:109E6000090332434FEA0A499DF807A0324343EA07
:109E7000090332434FEA0A69324343EA0903C4E95A
:109E8000002302B0BDE8D08F13B5144601A9042207
:109E900000F0EDFF70B19DF806309DF805201B0421
:109EA00043EA02239DF8042013439DF8072043EA68
:109EB0000263236002B010BD73B50D4601A90646CA
:109EC000144600F0A1FF98B1019A511C0FD26B7893
:109ED00003F0C003802B0AD02B79994207D8304673
:109EE000214600F0C4FF019B0022E25400E0002064
:109EF00002B070BD73B50D4601A90646144600F0C8
:109F000083FFA8B1019BFF2B11D8591C0FD26A788F
:109F100002F0C002802A0AD02A79914207D821464D
:109F2000304601F8013B1A4600F0A1FF00E0002096
:109F300002B070BDF7B50F466946164601F09EFEA9
:109F400050B3DDE90045002304F001026D084FEA3B
:109F5000340413431CBFE443ED43E8B13B79082BC1
:109F600002D1C6E9004517E0042B02D13460224635
:109F70000AE0022B03D1A3B233801AB204E0012B12
:109F800009D1E3B233705AB2D317AB4206BFA24233
:109F90000120002000E0002003B0F0BD37B50D46E1
:109FA0006946144601F06AFE20B32B79082B04D1D0
:109FB000DDE90001C4E9000113E0042B03D1DDE970
:109FC000000120600CE0022B03D10098208080B2B9
:109FD00006E0012B0DD1DDE90001207000F0FF004B
:109FE0000021DDE90023994206BF904201200020B4
:109FF00000E0002003B030BD37B50D466946144679
:10A0000001F03CFE20B32A79082A04D1DDE90023BF
:10A01000C4E900231CE0009B042A18464FEAE371C0
:10A0200003D123601A460B460BE0022A03D19BB2F0
:10A0300023801AB204E0012A09D1DBB223705AB29C
:10A04000D3178B4206BF82420120002000E000208F
:10A0500003B030BD37B502A80025184C00F8015DEB
:10A0600001F060F921786278D3B26288934238BFF8
:10A070000133C9B238BFDDB28D4209D0657863784B
:10A08000DBB293423ABF0133DBB20023637001E0DD
:10A090004FF6FF759DF80700FEF7BEFB4FF6FF7306
:10A0A0009D4209D06368064943F8351003EBC502A9
:10A0B0000023938003B030BDFFF762FBD02F002058
:10A0C000999D070013B50A4B00930A4A0A4B934225
:10A0D00008BF002304460193019B3BB120461A6848
:10A0E000596890476846FFF73FFAF5E702B010BDA0
:10A0F000E8D5070048D7070038D7070013B50C4B41
:10A1000000930C4A0C4B934208BF00230446019372
:10A11000019B43B11A6859682046904728B16846A8
:10A12000FFF722FAF4E7184600E0112002B010BD54
:10A13000F4D5070038D7070030D7070073B51E4D98
:10A140002C7A1CBB012620466E72FFF7D7FF112820
:10A1500020462FD0FFF7B6FF184B19491868019019
:10A1600001A8FFF717FE28BB164B2E72E02268727B
:10A17000A87283F8162383F8152393F8162352093F
:10A18000911E052914D8042A02D111E0082011E0FB
:10A190000D4A916821B1136843F48003136002E013
:10A1A0004FF480021A600120FFF78CFF002001E0CD
:10A1B000FFF7E6FA02B070BDD02F002000D60700EE
:10A1C000A597070000E100E0F831002011DF70479B
:10A1D000974B1B78062B0FD1964B1B6819070BD199
:10A1E000954B1B6803F0F002302A00F0F18003F079
:10A1F000E003402B00F0EC808D4B1B78062B0AD13E
:10A200008C4B1B681A0706D18B4B1B6803F0F003BD
:10A21000302B00F0E480864B1B78062B0FD1854B4A
:10A220001B681B070BD1844B1B6803F0F002302A1C
:10A2300000F0D98003F0E003402B00F0D4807C4B89
:10A240001B78062B0AD17B4B1B68180706D17A4B6B
:10A250001B6803F0F003302B00F0CC80744B1B78AC
:10A26000062B0FD1734B1B6819070BD1724B1B6860
:10A2700003F0F002302A00F0C38003F0E003402B2B
:10A2800000F0BE806A4B1B78062B0AD1694B1B6815
:10A290001A0706D1684B1B6803F0F003302B00F05F
:10A2A000B980634B1B78062B0BD1624B1B6813F0F4
:10A2B0000F0306D1604A126802F0F002302A00F063
:10A2C000AD805B4B1B78062B0AD15A4B1B681B07D2
:10A2D00006D1594B1B6803F0F003502B00F0CC80E3
:10A2E000534B1B78062B0FD1524B1B6818070BD111
:10A2F000514B1B6803F0F002302A00F0058103F097
:10A30000E003402B00F00081494B1B78062B17D14E
:10A31000484B1B68190713D1474B1B6803F0F00229
:10A32000302A03D003F0E003402B09D14FF08043E3
:10A33000D3F80024D20703D56FF00102C3F800243C
:10A340003E4AD2F8883043F47003C2F88830BFF335
:10A350004F8FBFF36F8F4FF01023D3F80022002AE6
:10A3600003DBD3F80432002B2EDA354B0122C3F87D
:10A370000425D3F80024002AFBD04FF01022152129
:10A38000C2F80012D3F80024002AFBD04FF01023AB
:10A390001522C3F804222A4BD3F80024002AFAD04D
:10A3A0000022C3F80425D3F80024002AFBD0BFF311
:10A3B0004F8F2249234BCA6802F4E0621343CB60FB
:10A3C000BFF34F8F00BFFDE71F4B204A1A60704755
:10A3D0001F4B204A1B68C3F3042313600CE71E4B7A
:10A3E0001E4A1A6017E71E4B1E4A1B68C3F342330E
:10A3F000136024E71C4AD36823F08073D3602DE7F1
:10A400004FF080430022C3F80C21C3F81021C3F899
:10A41000382537E7154B03221A6042E7144A052115
:10A420001160012191679360124B3F221A6048E747
:10A43000E00F00F0E40F00F0E80F00F000ED00E0A6
:10A4400000E001400400FA05542800200090D003E9
:10A45000240300104035014074C007400DF0ADBA30
:10A46000440200103C050040F0ED00E0A005004073
:10A4700010560040145600404FF08052264BD2F840
:10A480000414C3F82015D2F80814C3F82415D2F820
:10A490000C14C3F82815D2F81014C3F82C15D2F8F0
:10A4A0001414C3F83015D2F81814C3F83415D2F8C0
:10A4B0001C14C3F84015D2F82014C3F84415D2F880
:10A4C0002414C3F84815D2F82814C3F84C15D2F850
:10A4D0002C14C3F85015D2F83014C3F85415D2F820
:10A4E0003414C3F86015D2F83814C3F86415D2F8E0
:10A4F0003C14C3F86815D2F84014C3F86C15D2F8B0
:10A500004424C3F87025EBE6044B054A1B6803F0AE
:10A510004F031360F8E600BF00C00040580200106F
:10A52000E40E004010B5012203680446984710B1BC
:10A53000A368013BA36010BD10B58EB000211022AE
:10A5400002A802F0C2FE2823ADF812301623ADF89F
:10A550000630012202238DF818308DF819208DF86D
:10A560001C30062259238DF81A208DF81D30032245
:10A57000FE230DF121000DF106018DF81B208DF851
:10A580001E3001F0E9FB024678B9BDF806104B1CFD
:10A590008DF81F30092319448DF8203006A8C9B260
:10A5A000134601F0E7FB044600E0044694B901F0CD
:10A5B000DDFB02A8012101F0DBFB50B94FF0A04305
:10A5C0004FF40032C3F80C254FF48022C3F808255D
:10A5D00000E0044620460EB010BD2DE9F0474FF0D4
:10A5E000A0430322C3F84427C3F848274FF400329E
:10A5F00094B0C3F808254FF48022C3F80825002141
:10A600000C220DA8089102F060FE00F0FCFC78BB63
:10A61000984801F07AFB58BBFFF790FD044608B15B
:10A62000FFF7AEF8944B089321460C220DA802F0D8
:10A630004CFE01250DA9089A8DF8345040208DF864
:10A6400035408DF8364001F071FB21460C220DA8F3
:10A6500002F03BFE172323200DA9089A8DF83450F1
:10A66000ADF8363001F062FB10B908A800F072FFB7
:10A670000446002840F0F980182180482246FEF761
:10A68000AFF87F49D1F89C3183420AD11C227D4822
:10A6900001F5CE7102F00EFE7B4A136843F002030F
:10A6A000136000230D930E939DF81030012262F386
:10A6B000030362F3071308A88DF8103001F05CFB68
:10A6C00038B99DF8213008A801338DF8213001F008
:10A6D00055FB0446002840F0C8806B4B1A6812F006
:10A6E000020F984603D067498A69043104E067483D
:10A6F00002F0F3FD6549024604A892B201F02EFB78
:10A7000070B90623ADF834301823ADF83630ADF803
:10A7100038004FF4C8730DA8ADF83A3001F020FBB3
:10A720000446002840F0A180594B4FF6FF7214A94F
:10A730001A804FF65963012021F8483D554A8DF89B
:10A740000A0001F0FFFA002840F08A80524B04AC66
:10A7500003F1100518685968224603C20833AB425A
:10A760001446F7D1474F04A807F11E0101F0DCFAA7
:10A770000446002875D121461C224FF0140A0DA86A
:10A7800002F0A3FD2146524608A802F09EFD9DF866
:10A790003430ADF8044043F004038DF83430BB7F0F
:10A7A0008DF80E3002234FF00109ADF80C30230A6A
:10A7B00069F3030369F3420469F30713E4B28DF804
:10A7C000053044EA090403AE01ADB88B8DF80640AC
:10A7D0000DA908AA07F1200308960995ADF82CA049
:10A7E00001F0AEFA044600283FD121461C220DA8F4
:10A7F00002F06BFD2146524608A802F066FD9DF866
:10A800003430ADF8044043F018038DF83430BB7F8A
:10A810008DF80E30230A204669F3030369F307130A
:10A8200069F342008DF80530C4B2172344F01104D7
:10A83000ADF82C30B88B8DF806400DA908AA07F1A9
:10A840002803ADF80C900896099501F079FA0446B2
:10A8500058B9D8F8003043EA0903C8F8003001E0DD
:10A86000044614B9FFF768FE0446204614B0BDE85C
:10A87000F08700BF0080070030280020A0F107000B
:10A8800000F00700E42F0020642E002014D60700FB
:10A89000502800200030002004D6070030B587B0D3
:10A8A00004460D46ADF8062002A81022002102F051
:10A8B0000CFD01238DF80A300DF1060304932046A8
:10A8C000044BADF8085002A9059301F035FA07B022
:10A8D00030BD00BFBE2F00202DE9F0430388212B9F
:10A8E0008BB0044600F088801ED8132B65D00CD89E
:10A8F000102B38D0112B42D0012B40F0D481A84B23
:10A900000021188801F00EFACAE11A2B00F0978195
:10A910001F2B6AD0142B40F0C68100210A460B463B
:10A92000808801F015FABBE1522B00F088810ED827
:10A93000502B00F08B8173D8232B40F0B481002280
:10A9400006A980880692079201F0FEF9A8E1562B2D
:10A950005CD0572B27D0552B40F0A581172180883C
:10A9600001F0E6F99CE14FF0A0434FF48022C3F8D8
:10A970000C254FF40032C3F80825828810E04FF010
:10A98000A0434FF48022C3F80825864B1B68580764
:10A9900004D4FFF7D1FD08B1FEF7F2FE4FF6FF72C7
:10A9A0007F4B1A807FE1804B93F83020002A00F023
:10A9B0007A81012283F8312075E10223784CADF8C9
:10A9C0000C300023ADF80E3003AA02AB20880493AC
:10A9D00042F6052101F0B2F902460028DCD12088B8
:10A9E0008521134601F0B6F95AE16D4B04F10801D7
:10A9F000188801F0B9F953E1002301A980888DF886
:10AA000004308DF8053001F0A1F949E18379002B7C
:10AA100040F04981624B1321188801F0A3F93FE10E
:10AA20008579002D00F03F8106A80021102202F058
:10AA30004CFC022D40F037815B4D22892B8D9A42D0
:10AA400040F03181A37B043B022B40F22C819DF826
:10AA50001E30534EA98D308843F001038DF81E300F
:10AA6000238AADF82030638AADF8223004F1140354
:10AA700002220993002303938DF81820ADF80C20CF
:10AA800002AB03AA049301F059F9374660B99DF867
:10AA90000830D90708D440F2FD133088ADF81C30D7
:10AAA00006A901F04DFAFEE000263888ADF81C60DA
:10AAB00006A901F045FA002840F0F58031460C2245
:10AAC00006A802F002FC314603A80C2202F0FDFBAE
:10AAD000217D4B1E052B00F2AF80DFE803F0033829
:10AAE000482DAD5A638A062B02D030480121A4E0DC
:10AAF000227EE17DAB8E6B86120442EA0122A17DAB
:10AB0000637D04930A43617E42EA01620592012259
:10AB100093428DF80C2001D0022B07D1244A03A8C0
:10AB200006A91370FEF73AF9024600E007221F4813
:10AB30000121FEF73AFEB6E0032306A903A88DF82B
:10AB40000C30FEF72BF9042102461848F1E7638A1E
:10AB5000032B02D0154802216FE0A27D637D1348CC
:10AB600043EA0223AB866B8602210122E1E704233C
:10AB700003A806A98DF80C30FEF710F90246012A49
:10AB80000A4804D10799089AFEF73CFE8BE003219E
:10AB9000CFE7638A022B0DD0044806214DE000BFA9
:10ABA00050280020642E0020E42F00200C300020CC
:10ABB00052280020637D04930622012B8DF80C207F
:10ABC00001D0022B34D1394A03A806A91370FEF72D
:10ABD000E5F80128034602462BD139880698DDF8AE
:10ABE0001C90DDF820804FF6FF7291425BD0304A16
:10ABF0001268D20757D52F4E60223270F11C062200
:10AC00007270B37001F083F8033084B23119484692
:10AC100001F07DF8204484B23119404601F077F804
:10AC2000254B298D221892B21888FFF737FE3AE09B
:10AC30000722224806217CE72048032279E70021E9
:10AC4000A0880A460B4601F075F829E01C4DC28821
:10AC50002B8C9A4227D100210C2206A802F035FB4A
:10AC600000210C2203A802F030FB02238DF80C30E7
:10AC700004F11203049303A8238A059306A9FEF79F
:10AC80008DF8AC8E7CB16B8E013B9BB26B8653B959
:10AC900005F128000799089AFEF7B4FD6C8602E0DA
:10ACA00000287FF479AE0BB0BDE8F0835228002075
:10ACB000642E0020BE2F0020502800200C300020E1
:10ACC000E42F002043681A44426039B101399342AD
:10ACD00004D013F8010B01F8010FF8E701207047C9
:10ACE000BFF34F8F0549064BCA6802F4E062134375
:10ACF000CB60BFF34F8F00BFFDE700BF00ED00E06A
:10AD00000400FA0529DF704718DF7047044B1A6802
:10AD100012B11A68013A1A60036903B11847704703
:10AD20001C300020F0B50346186880F30888586886
:10AD3000FF2464B2EFF30585002D08D1EFF31481F1
:10AD4000022221EA020181F31488A6460047254623
:10AD5000064621273FBAF0B400240025002600272C
:10AD6000F0B4F92040B20047F0BD13DF704769B17D
:10AD70000B78022B0CD1022804D003280CBF08202A
:10AD80001120704703230B70002070470E2070477E
:10AD90001120704738B1054B0360054B4360012318
:10ADA0000372002070470E20704700BFB5AD07004A
:10ADB0006FAD070038B5044609B90E2038BD0B78D1
:10ADC000042B04D8DFE803F01B05031B1B00112034
:10ADD00038BD02230B4D0B70D5F89C310028ECD008
:10ADE00001330CD1182100220430FDF7F9FC20605A
:10ADF000214605F5CE700722BDE8384082E70820DD
:10AE000038BD00BF00F007002DE9F3418368074615
:10AE100088460BB9002626E00DF10701FFF782FBFB
:10AE200006460028F6D09DF80740220619D504F002
:10AE30007F040725BB68002BECD038460DF10701D5
:10AE4000FFF770FB0028E5D09DF8072002F07F0394
:10AE5000AB401C43130605F1070502D5232DE9D1AC
:10AE6000D8E7C8F80040304602B0BDE8F08130B500
:10AE7000044685B0154689B90268104B9A420DD038
:10AE8000102D2046694605D91022FFF7F0FF98B132
:10AE9000103DF5E72A46FFF7EAFF0DE0A368AB4255
:10AEA00001D2002008E0236820462A46984700285F
:10AEB000F7D0A3685D1BA56005B030BDC5AC070029
:10AEC0000023C2600160416083608B781A44026194
:10AED00091F903301A4442610878003018BF01200C
:10AEE000704710B542681178034600293AD002F144
:10AEF0000C014160147B2CB90168C268FFF7E0FFC8
:10AF0000204610BD5178107901F03004302C0AD160
:10AF1000547B04F03004302C05D190781969091A5B
:10AF2000196100200CE001F0F004202C03D15179CC
:10AF300011FB00F004E001F0C001802908BF0420EB
:10AF4000517811F0300F02BF996801319960917BFF
:10AF5000014418690144196192F90F2011445961A3
:10AF6000012010BD084610BD10B5094B186A012814
:10AF70000CD1DC695CB143F20802996910680022C7
:10AF8000FDF72EFC031B5842584110BD002010BD98
:10AF90002433002008B5FFF7E7FF88B1094B9B7801
:10AFA00063B10948037D4BB903754375074B836152
:10AFB0004FF4A021043000F021FA08B1FEF7E0FBC5
:10AFC00008BD00BF043200201C300020E1AC0700A7
:10AFD00008B50C22002102F078F9034B00221A6315
:10AFE0005A631A615A6108BD243300201FB5032338
:10AFF000019092086846009302910392FFF784FE45
:10B0000005B05DF804FB1FB500211022684602F070
:10B010005CF9022368460093FFF776FE05B05DF801
:10B0200004FBF7B505461748144602680132026072
:10B030000A46B9B114480668B6B1BCB141684F6858
:10B04000B4FBF7F107FB114181B942EA0501890719
:10B050000ED1C1688D420BD3611E07692944B942E4
:10B0600006D807E00E200AE0082008E0092006E0E4
:10B07000102004E00093F66829462346B04703B049
:10B08000F0BD00BF1C300020C428002070B5134C58
:10B0900023680646013312482360012100F024FA98
:10B0A000024608B1032070BD0E4D58212846FDF719
:10B0B00097FB29464FF4DC7241F8040D04F124009B
:10B0C00002F0F8F8064804F124014FF4DC7233462C
:10B0D000FFF7A7FF0028E5D170BD00BF1C3000209E
:10B0E00000F00700283300202DE9FF41214E726B4C
:10B0F000336B02F6FF75ED1A25F47F6525F00F0519
:10B10000AC0804F6FF7424F47F6403F5805824F03F
:10B110000F04C7180AB1934227D003B9B764AC42F1
:10B1200082BF05F6FF7424F47F6424F00F0401232A
:10B130008DE888016846A3080393FFF7E5FDA8B9E9
:10B14000404639462246FFF751FF78B9AC42736B4F
:10B150008CBF05462D1B5B1B0020A0442744336396
:10B16000FFF794FF002DDAD100E0002004B0BDE825
:10B17000F08100BF243300207FB5164A0B68546B62
:10B180001C1B8B68AC2B05460E4606D01248294680
:10B190002246FFF72BFF78B907E00F48A5F580415D
:10B1A0002246FFF723FF0028F0D13046FFF710FFBB
:10B1B0000A48FFF76BFF0AE068460021102202F000
:10B1C00084F8A408684601950294FFF79DFD04B039
:10B1D00070BD00BF243300200080070095AF07003A
:10B1E000084B4FF0FF3210B5C3F88020C3F8802120
:10B1F0000446FFF7BAFD18B92046BDE8104091E5B6
:10B2000010BD00BF00E100E01EF0040F0CBFEFF323
:10B210000880EFF3098000F001B800BF38B58369FA
:10B22000044613F8020C08B9216901E04FF0FF3120
:10B230000E4B0F4A0C25D21AB2FBF5F205FB023277
:10B2400093420FD01D6885420AD14D1C05D19D68DF
:10B2500094E80F00A847206038BD5D688D42F6D0A5
:10B260000C33EDE70123236038BD00BF1CD7070076
:10B2700028D707003EDF704748DF704761DF70471F
:10B280001FB501A8FFF7F8FF90B90D4B02930D4AC7
:10B290000D4B934208BF00230393039B002BF0D078
:10B2A00001981A685968904702A8FEF75DF9F4E71B
:10B2B000052801D0FEF764FA05B05DF804FB00BF75
:10B2C0001CD6070068D7070058D7070000B593B011
:10B2D000382304A80DF10601ADF80630FFF7CEFFC4
:10B2E00090B90D4B02930D4A0D4B934208BF0023BA
:10B2F0000393039B002BEBD004A81A68596890476E
:10B3000002A8FEF731F9F4E7052801D0FEF738FA74
:10B3100013B05DF804FB00BF28D6070030D7070044
:10B3200028D7070070B5EFF3108572B60D4A946800
:10B33000012394B993600C4B0C49D3F880603140E1
:10B3400011600A49C3F88010D3F8841051604FF09F
:10B35000FF32C3F88420047000E0037005B962B6C0
:10B36000002070BDF831002000E100E0FC06FFBDC8
:10B37000204B21491A682F2300BF00BF00BF00BF28
:10B3800000BF00BF00BF00BF8A422FD000BF00BF78
:10B3900000BF00BF00BF00BF00BF00BF00BF00BFB5
:10B3A00000BF00BF00BF00BF00BF00BF00BF00BFA5
:10B3B00000BF00BF00BF00BF00BF00BF00BF00BF95
:10B3C00000BF00BF00BF00BF00BF00BF00BF00BF85
:10B3D00000BF00BF00BF00BF00BF00BF00BF00BF75
:10B3E00000BF00BF00BF00BF00BF00BF013BC3D113
:10B3F000704700BF542800200024F4002DE9F341D9
:10B400001D4FBB7B05460E4693B388B304292DD947
:10B4100043696BB3437C02A80024012B00F8014D63
:10B420000CBF8846A046FFF77DFF0DF10600FDF733
:10B4300059FA70B101230370104B4560D3F80435FD
:10B4400083609DF80630C660C0F8108044617B734D
:10B4500000E004249DF80700FDF7DEF924B9084B4D
:10B460004FF48012C3F80021204602E0072000E0DC
:10B47000082002B0BDE8F081F83100200010014042
:10B4800000E100E013B5114B53E8012F94B2D989C4
:10B490000C4499898C4228BF641A19898C4202BFD6
:10B4A000BFF32F8F002307E0C4EA020443E8014101
:10B4B0000029E9D14FF001038DF803300192019B7F
:10B4C00003609DF8030002B010BD00BF10330020E0
:10B4D000044B53E8011FC1EA014143E80112002A6D
:10B4E000F7D170471033002070B504460F48056847
:10B4F0000A467DB181B1436819684B1E23400DD1C6
:10B50000C668B4420AD3661E01FB02610669B142F5
:10B5100004D805E0082070BD092070BD102070BD62
:10B520002D692146AC46BDE870406047C428002024
:10B5300000B50020064B53E8002F02EA000E43E856
:10B5400000E191F0000FF6D170465DF804FB00BFFA
:10B550002033002060DF704738B543F2080305460A
:10B5600019681D4B1A68A2F54052521A824231D313
:10B570001A48D0F84C41C0F8E412012C1BD1D0F885
:10B58000443103F6FF7323F47F6323F00F03D21AD1
:10B5900095424FF0000204D9C0F83C41C0F8402168
:10B5A0000EE00B44C0F84041C0F83C21C0F8E43242
:10B5B00000F5A87406E00023C0F83C31C0F8403123
:10B5C00000F5A274204600210C2201F07EFE2560C9
:10B5D000002038BD042038BD14100010F8310020C0
:10B5E00070B5A0B00C46ADF804001646C0B21D46BA
:10B5F000002B00F0E780002900F0E4801B68002B9E
:10B6000000F0E280052840F0E18002A9FEF7AAFBE5
:10B61000002840F0DE806B68029A9A4240F0D880A1
:10B6200000230022CDE916236B4B18936B4B199323
:10B630006B4B1A936B4B1B936B4B1C936B4B1D9378
:10B640006B4B1E9303F17453A3F52303A3F69243AC
:10B6500014901F932644B44219D0149B14F8011B74
:10B6600020AA1A440133402B02F8701C1493F2D123
:10B6700004A80146FDF784FFDDE9162312F50072E8
:10B6800043F10003CDE9162300231493E3E70520DB
:10B6900003A99DF80540FEF765FB002840F099805E
:10B6A0006B68039A9A4240F093802E68002E00F057
:10B6B0008980149A20AB1344372A04AD4FF08001DF
:10B6C00002F1010203F8701C2A4406D8531B382BE0
:10B6D00013D0002302F8013BF8E7531B3F2B03D89C
:10B6E000002302F8013BF8E728462946FDF748FF0A
:10B6F00028460021382201F0E8FDDDE916231498E0
:10B700000821E1FB002322FA01F1CDE916238DF88F
:10B710004F208DF84E10110C120E8DF84C201A0A85
:10B720008DF84D108DF84B308DF84A2028461A0CB4
:10B7300029461B0E8DF848308DF84920FDF720FF73
:10B740003346FCB922461F99D14019701E99D14049
:10B7500019711D99D14019721C99D14019731B9907
:10B76000D14019741A99D14019751999D140197697
:10B770001899D1400832202A197703F10103E2D148
:10B78000002026E003211898CA00D04018701998AC
:10B79000D04018711A98D04018721B98D040187376
:10B7A0001C98D04018741D98D04018751E98D04031
:10B7B00018761F980139D0404A1C187703F101030D
:10B7C000E1D1DDE70E2004E0102002E0062000E0D9
:10B7D000092020B070BD00BF67E6096A85AE67BB6F
:10B7E00072F36E3C3AF54FA57F520E518C68059B63
:10B7F000ABD9831F13B50446052920D8DFE801F033
:10B80000070F121F1F1C9DF90430002B18DA204669
:10B8100001A90122FFF72BFB0028F4D110E0002141
:10B82000082206E001A9FFF7EFFA48B1019A204685
:10B830000021FFF71CFB03E000210422F9E70020B0
:10B8400002B010BD7FB503460A4668461946FFF7A9
:10B8500037FB30B1684600F007F86846FFF741FB58
:10B86000F7E707B05DF804FB30B54268527802F0A4
:10B870000F01082987B003461ED103691C68002CFC
:10B8800045D000232373236862689D686846294673
:10B89000FFF716FB6368049304F10C0305936B78C0
:10B8A00003F0C003802B08BF231D684608BF049324
:10B8B000FFF7DAFFA468E2E712F0C00109D102F055
:10B8C0003000102802D15A6911700CE090060AD598
:10B8D00006E080291BD1006900219206016016D57F
:10B8E0005B69197013E05A68517801F00F0107295C
:10B8F00004D190681969FFF7A5FF08E091681869FD
:10B90000127911B101F0D6FC01E001F0DEFC07B0C4
:10B9100030BD73B50D4601A90446FFF775FA06461A
:10B9200008B900260AE094E80F0085E80F000199A5
:10B930008A42F6D3A960A3685B1AA360304602B0BE
:10B9400070BD2DE9F04357687B7813F0C00C89B0C7
:10B9500006468E46144603D0BCF1400F66D0B0E0D8
:10B9600003F00F02594903F03003102B51F8225015
:10B970000AD004D8002B40F0A480394608E0202BE0
:10B9800009D0302B40D09CE0636901221A706168B5
:10B990002269A84796E0BEF1020FD4F8148023D1A3
:10B9A000042A21D804A9FFF7B4FF002800F08980F9
:10B9B000069B93B1616898F800204B7993420CD9AB
:10B9C0000F79236904A807FB0232A84730B198F821
:10B9D0000030013388F80030EAE70120059B7360EE
:10B9E000069B002B6ED06CE098F8003079792269C4
:10B9F00097F804E0994264D9591C88F80010304641
:10BA000061680EFB0322C4E7636939781970072A5D
:10BA10000AD1636820691A79614601F056FC6368AF
:10BA200021699868FFF70EFF3046B0E717693B6859
:10BA300007F1040913B9FFF7DDFE43E0022911D134
:10BA400004A9FFF766FF00283BD03B68616804A8A3
:10BA50004A469847002834D0069B002BF5D1059B19
:10BA600073602FE0012919D007D3052929D101A935
:10BA70000422FFF7FCF9042515E000250DF1040868
:10BA800001350B2D1DD0304641460122FFF7EFF95D
:10BA9000B8B118F9013B002BF2DB05E001A908223F
:10BAA000FFF7E5F9082568B1094B049301AB05934D
:10BAB0000023069507933B68616804A84A469847A7
:10BAC00000E0002009B0BDE8F08300BF34D60700D5
:10BAD000C5AC07002DE9F0478EB00027044602A848
:10BAE00000970197FFF7ECF9A368002B44D020469C
:10BAF00008A9FFF789F918B9A368002B3CD033E0F7
:10BB0000089E002E38D0039D4FEAD60806F007069F
:10BB1000039B1A78424529D002A8FFF7E2F9039B5C
:10BB2000AB42F5D1B8455CD3039A537803F00F03C9
:10BB3000082B4BD11778B84553D3069BD4F80890FF
:10BB40001D68A368002D4AD0994548D12B68D3F8C9
:10BB500000C0BCF1000F6CD0204629464246334657
:10BB6000E047002840F08580002084E05B7803F007
:10BB70000F02082AD0D039E0039B049C5D7802A80C
:10BB8000FFF7AFF90028F7D115F0300F03D1039B71
:10BB90001B7803B10134BCB162090023934205D084
:10BBA0005DF823100131DFD10133F7E70EAA02EB74
:10BBB000830304F01F04C4F120044FF0FF3253F854
:10BBC000383CE2409342CFD1012054E002A8FFF775
:10BBD00088F9039BAB42A7D14FF0FF3701E09945AD
:10BBE00082D120463146FFF705FE1EE013F0300FEC
:10BBF0000FD1049B3F2B0CD85A090EA901EB8202EE
:10BC000003F01F030121994052F8383C0B4342F8DE
:10BC1000383CE56825B120464146324602ABA8478C
:10BC20002046314602AAFFF78CFE00287FF45CAF65
:10BC30009AE7D3F808A09AF80030434519D1514645
:10BC40006A6808A8FFF73CF96B680C9305F10C03D0
:10BC50000D939AF8013003F0C003802B04BF2B1D15
:10BC60000C9301232B732046314608AAFFF769FE87
:10BC700077E7AD6865E70EB0BDE8F0872DE9F347DB
:10BC800081468A46002600270024D9F808300BB9DF
:10BC900000251EE048460DF10701FEF743FC05466E
:10BCA0000028F5D09DF8078008F07F002246C0B23A
:10BCB000002100F047F918F0800F46EA000647EA35
:10BCC000010704F1070402D0462CDED1E0E7CAE9FF
:10BCD0000067284602B0BDE8F08700BF38B5084BC2
:10BCE00003F108040546002808BF1C4623682BB151
:10BCF0001A6822605B6828469847F7E738BD00BF9E
:10BD0000702E002000B9E9E7704713DF7047C0F3D9
:10BD1000072308704B70C0F30743000EC8708B7088
:10BD20000420704766DF704762DF704769DF704745
:10BD3000ADDF7047A9DF7047A6DF7047A5DF70470A
:10BD4000A2DF7047A0DF704790DF70478FDF70473A
:10BD500086DF70477FDF70477DDF70477CDF70478D
:10BD60007ADF704776DF704775DF704774DF7047A2
:10BD700073DF704772DF70476DDF70476CDF7047AD
:10BD80000F4B10B50124C3F80445BFF36F8FBFF309
:10BD90004F8F043900EB82029042094B08D051F8D2
:10BDA000044F40F8044BD3F80044002CFBD0F3E7D9
:10BDB0000022C3F80425BFF36F8FBFF34F8F10BD70
:10BDC00000E001400B4B0222C3F80425BFF36F8F44
:10BDD000BFF34F8FC3F80805D3F80024002AFBD027
:10BDE000044B0022C3F80425BFF36F8FBFF34F8FBE
:10BDF000704700BF00E001400E4B00225A609A607D
:10BE00001A61DA600C4A1168C9075FBFE02182F845
:10BE100000130121C2F8801158BF1160074A12783F
:10BE200022B94FF080420121C2F8181501221A7080
:10BE300000207047682E002000E100E0D82F00208D
:10BE4000134B07B51A686AB1002018601B6800938D
:10BE50004FF08042009B0123C2F808330D4A537013
:10BE6000FFF73CFF0C4B1A6872B100221A601B6886
:10BE70000193019B4FF080430222C3F80823054B36
:10BE800001209870FFF72AFF03B05DF804FB00BFA4
:10BE900000010040682E002004010040064B0122F2
:10BEA0001A604FF08043D3F81834C3F30043002BDB
:10BEB000F7D1024A937070470C000040682E0020B2
:10BEC000012813B508D002D3032816D02FE0194B50
:10BED0000122C3F880202AE002A80023164C00F8B3
:10BEE000013DFFF71FFA23780BB9FFF785FFE368E1
:10BEF0000133E3600123A37015E00E4BE02283F8C9
:10BF0000002302A80122C3F880211A60002300F850
:10BF1000013DFFF707FA084BDA68013ADA60DB689F
:10BF20000BB9FFF7BBFF9DF80700FCF775FC02B0EB
:10BF300010BD00BF00E100E0682E002040DF704728
:10BF4000A8DF70479140031C90409C46203A9340E4
:10BF5000194352426346D340194370470649074A82
:10BF6000074B9B1A03DD043BC858D050FBDCFEF79F
:10BF70002FF9FCF773F9000070D707003028002074
:10BF8000D8280020FEE7FEE7FEE7FEE7FEE7FEE733
:10BF9000FEE7FEE7FEE7FEE71AB1013A8B5C835449
:10BFA000FAE7704710B5013AD2B253B2002B09DB61
:10BFB0001BB250F8234051F823309C4204D8F2D2EF
:10BFC000FF2002E0002000E0012040B210BD000090
:10BFD000C3F10803DB0070B501330446002003A55C
:10BFE0005B1920C940CAAD1920C4184720C940CAEE
:10BFF000754120C420C940CA754120C420C940CA27
:10C00000754120C420C940CA754120C420C940CA16
:10C01000754120C420C940CA754120C420C940CA06
:10C02000754120C4404170BD0000000000000000C8
:10C03000C3F10803DB0070B50133002403A500BF82
:10C040005B1920C940CAAD1B20C0184720C940CA8F
:10C05000B54120C020C940CAB54120C020C940CA4E
:10C06000B54120C020C940CAB54120C020C940CA3E
:10C07000B54120C020C940CAB54120C020C940CA2E
:10C08000B54120C06441B4FA84F0400970BD00BFDE
:10C090002DE9F04F08B4F8CA04B451F8042BA3FBFF
:10C0A000028940F8048B4FF0000AE4FB629A4FF0DB
:10C0B000000BE5FB62AB4FF0000CE6FB62BC4FF0FF
:10C0C000000EE7FB62CE51F8042B4FF00008E3FBB3
:10C0D000628940F8048BE4FB629AE5FB62ABE6FB05
:10C0E00062BCE7FB62CE51F8042B4FF00008E3FB83
:10C0F000628940F8048BE4FB629AE5FB62ABE6FBE5
:10C1000062BCE7FB62CE51F8042B4FF00008E3FB62
:10C11000628940F8048BE4FB629AE5FB62ABE6FBC4
:10C1200062BCE7FB62CE51F8042B4FF00008E3FB42
:10C13000628940F8048BE4FB629AE5FB62ABE6FBA4
:10C1400062BCE7FB62CE40F8049B40F804AB40F8C9
:10C1500004BB40F804CB40F804EB0CBC052B00F00A
:10C160001E810C68A0F11400A1F11401A2F11402C7
:10C1700052F804EB4FF0000550F8046BE4FB6E56E8
:10C1800052F804EB50F8047BE4FB6E6752F804EBC2
:10C1900050F8048BE4FB6E7852F804EB50F8049BE3
:10C1A000E4FB6E8952F804EB50F804ABE4FB6E9AA2
:10C1B000A0F1140052F8044B51F804EB4FF0000CBE
:10C1C000E4FB6EC540F804CB51F804EBE4FB6E567B
:10C1D00040F8045B51F804EBE4FB6E6740F8046B35
:10C1E00051F804EBE4FB6E7840F8047B51F804EB63
:10C1F000E4FB6E8940F8048B51F804EBE4FB6E9A83
:10C20000A0E80006062B00F0CA800C68A0F1180018
:10C21000A1F11801A2F1180252F804EB4FF0000549
:10C2200050F8046BE4FB6E5652F804EB50F8047BB4
:10C23000E4FB6E6752F804EB50F8048BE4FB6E7875
:10C2400052F804EB50F8049BE4FB6E8952F804EBBF
:10C2500050F804ABE4FB6E9A52F804EB50F804BBC0
:10C26000E4FB6EABA0F1180052F8044B51F804EB5C
:10C270004FF0000CE4FB6EC540F804CB51F804EB22
:10C28000E4FB6E5640F8045B51F804EBE4FB6E6788
:10C2900040F8046B51F804EBE4FB6E7840F8047B43
:10C2A00051F804EBE4FB6E8940F8048B51F804EB81
:10C2B000E4FB6E9A40F8049B51F804EBE4FB6EAB90
:10C2C000A0E8000C072B6AD008B40C68A0F11C0091
:10C2D000A1F11C01A2F11C0252F804EB4FF0000581
:10C2E00050F8046BE4FB6E5652F804EB50F8047BF4
:10C2F000E4FB6E6752F804EB50F8048BE4FB6E78B5
:10C3000052F804EB50F8049BE4FB6E8952F804EBFE
:10C3100050F804ABE4FB6E9A52F804EB50F804BBFF
:10C32000E4FB6EAB52F804EB50F804CBE4FB6EBCBC
:10C33000A0F11C0052F8044B51F804EB4FF000033D
:10C34000E4FB6E3540F8043B51F804EBE4FB6E5619
:10C3500040F8045B51F804EBE4FB6E6740F8046BB3
:10C3600051F804EBE4FB6E7840F8047B51F804EBE1
:10C37000E4FB6E8940F8048B51F804EBE4FB6E9A01
:10C3800040F8049B51F804EBE4FB6EAB40F804ABBF
:10C3900051F804EBE4FB6EBCA0E8001808BCBDE853
:10C3A000F08F2DE9F04FB1E8005E06B4AAFB091248
:10C3B0004FF00003EBFB69234FF00004ECFB693402
:10C3C0004FF00005EEFB69454FF00006EBFB6A639A
:10C3D000ECFB6A344918524176415B41A9FB09786C
:10C3E0004FF0000949F1000918EB0108A0E88001AD
:10C3F000AAFB0A78574158EB0608A0E88001EEFB3B
:10C400006A454FF0000A4AF1000A4FF00001ECFBC8
:10C410006B14EEFB6B454FF00002EEFB6C255FEA00
:10C4200059094941644152416D4149F10009EBFB11
:10C430006B3A1AEB010AA0E80804ACFB0C6A6641EF
:10C440005AEB020AA0E84004AEFB0E6A6E415AEBBA
:10C45000090AA0E8400406BC052A00F0E680A0F125
:10C460001400A1F11401B1E8E043A5FB0E344FF034
:10C470000005E6FB6E454FF00006E7FB6E564FF0F9
:10C480000007E8FB6E674FF00008E9FB6E784FF09D
:10C490000009DB1864416D4176417F4158EB080883
:10C4A00059F1000950F804CB13EB0C0350F804CBFE
:10C4B00054EB0C0450F804CB55EB0C0550F804CBAE
:10C4C00056EB0C0650F804CB57EB0C0758F100085C
:10C4D00059F10009A0F11400EEFB0E89A0E8F80361
:10C4E000062A00F0A280A0F11800A1F11801B1E81D
:10C4F000E047A5FB0E344FF00005E6FB6E454FF01C
:10C500000006E7FB6E564FF00007E8FB6E674FF042
:10C510000008E9FB6E784FF00009EAFB6E894FF0E6
:10C52000000ADB1864416D4176417F4158EB0808F1
:10C5300059EB09095AF1000A50F804CB13EB0C032C
:10C5400050F804CB54EB0C0450F804CB55EB0C051D
:10C5500050F804CB56EB0C0650F804CB57EB0C0705
:10C5600050F804CB58EB0C0859F100095AF1000AB5
:10C57000A0F11800EEFB0E9AA0E8F807072A54D0A5
:10C58000A0F11C00A1F11C01B1E8E04FA5FB0E34A5
:10C590004FF00005E6FB6E454FF00006E7FB6E56D8
:10C5A0004FF00007E8FB6E674FF00008E9FB6E787C
:10C5B0004FF00009EAFB6E894FF0000AEBFB6E9A20
:10C5C0004FF0000BDB1864416D4176417F4158EB21
:10C5D000080859EB09095AEB0A0A5BF1000B50F8FD
:10C5E00004CB13EB0C0350F804CB54EB0C0450F8C1
:10C5F00004CB55EB0C0550F804CB56EB0C0650F869
:10C6000004CB57EB0C0750F804CB58EB0C0850F850
:10C6100004CB59EB0C095AF1000A5BF1000BA0F1B5
:10C620001C00EEFB0EABA0E8F80FBDE8F08F10B5D4
:10C63000002253B28B4205DA1BB2002440F823409B
:10C640000132F6E710BD2DE9F0478846B3F9021034
:10C650001F460825CB1D202493FBF5F51F3195427D
:10C6600091FBF4F44FFA84F928BF15460646494673
:10C67000FFF7DDFF2A4630464146FFF78DFCB7F94C
:10C680000230ED009D4220D9ED1A06EB8401002214
:10C690008E420AD251F8040D20FA05F313430B60C1
:10C6A000C5F1200300FA03F2F2E724373846314699
:10C6B0004A46FFF777FC012807D0304631463A4614
:10C6C0004B46BDE8F047FFF7B3BCBDE8F08710B5B7
:10C6D00000231A465CB28C4204DA50F8244001333D
:10C6E0002243F7E7B2FA82F0400910BD4A11012354
:10C6F00001F01F0150F822008B40184070470139AB
:10C70000C9B24BB2002B0BDA013111F0FF0315D087
:10C7100059B201F18043013B50F82320002304E08B
:10C7200050F82330002BEAD0EEE712B15208013363
:10C73000FBE7481E03EB401080B200E0184600B251
:10C74000704730B5002463B2934206DA1BB201345D
:10C7500051F8235040F82350F5E730BDF0B50C46B2
:10C7600089B008220646FFF7ECFFE36A0393236BC8
:10C770000493636B0593A36B0693E36B0793002706
:10C7800069466A4608236846029701970097FFF7B3
:10C790001FFC314605466A4608233046FFF718FC61
:10C7A000236B0393636B0493A36B0593E36B069373
:10C7B000054469466A46082368460797FFF708FC60
:10C7C000314605446A4608233046FFF701FC236AD8
:10C7D0000093636A0193A36A0293A36B0693E36BCE
:10C7E0000793054431466A46082330460597049767
:10C7F0000397FFF7EDFB636A0093A36A0193E36A73
:10C80000A26B0293636B039304920693E26B236A19
:10C8100005920544079331466A4608233046FFF7E0
:10C82000D7FBE36A0093236B0193636B0293236A44
:10C830000693A36A0793054431466A4608233046A7
:10C84000059704970397FFF7F3FB236B0093636B44
:10C850000193A36B0293E36B0393636A0693E36A0A
:10C8600007932D1A31466A460823304605970497E8
:10C87000FFF7DEFB636B0093A36B0193E36B029303
:10C88000236A0393636A0493A36A0593236B079354
:10C890002D1A31466A46082330460697FFF7C8FB33
:10C8A000A36B0093E36B0193636A0393A36A0493FE
:10C8B000E36A0593636B07932D1A314630466A4647
:10C8C000082302970697FFF7B3FB2D1A16D53046BB
:10C8D00031460D4A0823FFF77BFB4519F7D410E0DA
:10C8E000094831460822FFF75DFB012809D0304690
:10C8F0003146054A0823FFF79BFB2D1A002DEFD088
:10C90000F5E709B0F0BD00BF5CD60700013A30B5CD
:10C91000D2B2002453B2002B09DB1BB2013A51F80A
:10C92000235050F823306B401C43D2B2F2E7B4FAE4
:10C9300084F0400930BD00EB81010023884206D21B
:10C9400051F8042D43EA52030B60D307F6E7704712
:10C95000F8B5036813F0010506460F46144605D0E6
:10C9600001463A462346FFF733FB0546304621464B
:10C97000FFF7E1FF45B104F18042013A56F8223059
:10C9800043F0004346F82230F8BD70B59DF91040E1
:10C990001D4623460646FFF71BFB30B928463146A5
:10C9A0002246FFF7FFFA012807D0304631462A46D3
:10C9B0002346BDE87040FFF73BBB70BD70B59DF9E5
:10C9C00010401D4623460646FFF732FB38B130467D
:10C9D00031462A462346BDE87040FFF7F9BA70BDDC
:10C9E0002DE9F043A3B09846019112AB41460746AA
:10C9F000104691460093FFF782FEC0EB881086B286
:10CA0000454C33B21C40002CBEBF04F1FF3464F02F
:10CA10001F040134202593FBF5F5EDB26DB2A4B2ED
:10CA200002A8294624B2FFF702FE28B202AB002C6E
:10CA300003EB800010DD00221346434510D259F865
:10CA4000235005FA04F10A4340F82320C4F12002E0
:10CA500025FA02F20133F0E749464246FFF771FE3C
:10CA60000FFA88F502AB4FEA4509012403EB85056F
:10CA7000330444D40022114653B24B4522DA0DF15F
:10CA8000880E0EEB840E0DF1880C18B25EF888EC5F
:10CA90000CEB83035EF820E053F8803CC3EB0E03FD
:10CAA0005B1A734502D08CBF01210021C4F1010E35
:10CAB0000DF1880C0CEB8E0E01325EF888EC4EF80E
:10CAC0002030D9E7621A544202A841465441FFF788
:10CAD00032FF22AA08F1FF3302EB830302EB880244
:10CAE000284652F8801C53F8802C013E42EAC1725D
:10CAF000414643F8802CB6B2FFF71DFFB8E722ABE2
:10CB000003EB8404384654F8881C4246FFF719FEAC
:10CB100023B0BDE8F08300BF1F00008070B590B067
:10CB200006469DF950401D4668462346FFF7B0FA79
:10CB3000304669462A462346FFF752FF10B070BDC3
:10CB400030B51C4691B0054693F900306846FFF7B2
:10CB50009FFAD4F8AC3028466946984711B030BDEA
:10CB600030B5144691B0054692F900206846FFF7AB
:10CB700018FCD4F8AC3028466946984711B030BD4F
:10CB80002DE9F04115468AB00446884602A80021E6
:10CB9000202200F09AFB2E780323204641462A46A5
:10CBA0002F1D76B20293FFF7DBFF2046214602AA33
:10CBB0003B460096FFF702FF2046214642462B46A1
:10CBC000FFF7BEFF00962046214605F184023B4652
:10CBD000FFF7DBFE0AB0BDE8F0812DE9F04793F9DD
:10CBE000006092B004468946104631461546984684
:10CBF000FFF76DFD002840F0978002A849464246A5
:10CC0000FFF7AEFF43460AA8214602AAFFF798FFA6
:10CC100002A801464246FFF7A3FF4346484649465D
:10CC20002A46FFF78DFF08F10407284629464246A9
:10CC3000FFF796FF204621462A463B460096FFF71F
:10CC4000A4FE284629462A463B460096FFF79DFE4D
:10CC5000284621462A463B460096FFF7AFFE20466F
:10CC600021462A464346FFF76BFF284621462246C7
:10CC70003B460096FFF789FE20463B46009621463C
:10CC80002A46FFF782FE2368DB07204613D533468A
:10CC900021463A46FFF79CF9314682462046FFF787
:10CCA0004AFE06F18043013B54F8230040EACA7073
:10CCB00044F8230002E03146FFF73DFE28462146B6
:10CCC0004246FFF74DFF284629460AAA3B460096F2
:10CCD000FFF774FE284629460AAA3B460096FFF74E
:10CCE0006DFE0AA801462A463B460096FFF766FEFF
:10CCF000204621460AAA4346FFF722FF02A8024621
:10CD00003B4621460096FFF759FE2046294632460B
:10CD1000FFF717FD284649463246FFF712FD484601
:10CD200002A93246FFF70DFD12B0BDE8F0872DE9EC
:10CD3000F0438BB08046129D15F9046B00961446A3
:10CD40001F4689462B4602A811464246FFF736FE8B
:10CD500002A80146129AFFF703FF4046414602AA85
:10CD6000129BFFF7EDFE2046214602AA129BFFF719
:10CD7000E7FE2B46384639464A460096FFF71EFE28
:10CD800002A83946129AFFF7EBFE02A80146424676
:10CD90002B460096FFF712FE02A8014622462B46BC
:10CDA0000096FFF70BFE2046214642462B46009692
:10CDB000FFF704FE484649462246129BFFF7C0FE95
:10CDC0002046414602AA2B460096FFF7F7FD38465B
:10CDD00039462246129BFFF7B3FE384639464A468B
:10CDE0002B460096FFF7EAFD204602A93246FFF7E0
:10CDF000A8FC0BB0BDE8F083F0B589B01C4607462F
:10CE00000E461546684611461A46FFF7A9FE3846F3
:10CE100039466A462346FFF793FE684669462A4626
:10CE20002346FFF78DFE304631466A462346FFF71C
:10CE300087FE09B0F0BDF0B50646A1B00F46084622
:10CE4000194615461C46FFF742FC20B130462146E4
:10CE5000FFF7EDFB73E0684639462246FFF771FCA9
:10CE600008A829462246FFF76CFC10A82146FFF7C8
:10CE7000DEFB012318A821461093FFF7D8FB684674
:10CE800008A92246FFF78EF8002853D0009BDA0746
:10CE900004D468462146FFF74EFD26E0089BDB07D9
:10CEA00004D408A82146FFF746FD3DE000281EDD1A
:10CEB00008AA234669466846FFF7BAF8684621463D
:10CEC000FFF739FD10A818A92246FFF76BF80028D4
:10CED00005DA10A801462A462346FFF779F810A87C
:10CEE000014618AA2346FFF7A3F810A81DE008A8DA
:10CEF0006A4623460146FFF79BF808A82146FFF73C
:10CF00001AFD18A810A92246FFF74CF8002805DAE8
:10CF100018A801462A462346FFF75AF818A80146E2
:10CF200010AA2346FFF784F818A829462246FFF7DF
:10CF30000FFDA4E7304610A92246FFF702FC21B0FE
:10CF4000F0BD00000048704758D607002DE9F04FAB
:10CF5000EFB01E46789C059023780493B4F9023014
:10CF600092461F33202293FBF2F3DBB206939DF926
:10CF7000187094F9012007F1FF3926AB002543F81A
:10CF800029506EAB03EB89034EA88B46314643F81C
:10CF9000805C43F8605CFEF7FFFF94F9012056A81F
:10CFA000B118FEF7F9FF9DF910604EA83146FFF762
:10CFB0008EFB8046002840F02F8156A83146FFF7AF
:10CFC00086FB0546002840F0258104F124084046F0
:10CFD0004EA93A46FEF7E6FF012840F01D81404683
:10CFE00056A93A46FEF7DEFF0128089040F014816A
:10CFF0003B461EA856A94246FFF71DFF0DF1380C0F
:10D0000060465946524623464CF82950CDF80CC08C
:10D01000FFF719FBDDF80CC00097604661461EAAB9
:10D020004346CDF824C00DF5BC79FFF777FD4346A4
:10D03000009716A84EA91EAAFFF770FD4846324673
:10D040000599FFF77EFBB300039309EB030B039AEB
:10D05000059B584699183246FFF773FB04F14403C9
:10D060001946324636A80793FFF76BFB04EB86019F
:10D0700032463EA8443104F1040AFFF762FB4946F8
:10D0800000961EA836AA5346FFF798FC4A465B4610
:10D0900036A83EA90094FFF74AFE1EA80146334673
:10D0A0005246FFF7C8FE1EAA484659462346FFF7D8
:10D0B000A3FEDDF824C0079B0B936046059B0C93F1
:10D0C0003946CDF814C00A95CDF83490FFF717FB18
:10D0D0003946054616A8FFF712FBA842B8BF2846F6
:10D0E00085B2DDF814C06F1E3FB260463946FFF7C7
:10D0F000FDFA394610F1000916A818BF4FF00109D2
:10D10000FFF7F4FA002814BF0223002343EA0909B9
:10D110000DF1280B32465BF8297026A83946FFF737
:10D1200010FB039B3246F9182EA8FFF70AFB314685
:10D130001EA8FFF77CFA023D089B1E93AEB237B2E1
:10D14000002F44DB23461EAAD4F8A45026A82EA9FB
:10D15000A84739460EA8FFF7C9FA3946051C16A894
:10D1600018BF0125FFF7C2FA002814BF02230023CD
:10D170001D430AAB53F8257037B39DF9105036A8FC
:10D1800039462A46FFF7DDFA039B3EA8F9182A46DE
:10D19000FFF7D7FA36A83EA91EAA2346FFF72CFEB2
:10D1A00046A826A936AA53460095FFF707FC36A8DD
:10D1B0003EA926AA2EAB0094FFF7B9FD1EA8014692
:10D1C00046AA2346FFF7BCFC013EB6B2B7E79DF97D
:10D1D00010501EA8014652462B46FFF72CFE234650
:10D1E00026A82EA91EAAFFF707FE9DF91840404663
:10D1F00026A92246FEF7D6FE012805D026A801461C
:10D2000042462346FEF714FF26A84EA92A46FFF7FA
:10D210007DFB02E0404600E028466FB0BDE8F08F9D
:10D2200008B5074B044613B10021AFF30080054B4E
:10D230001868836A03B19847204600F057F800BF8A
:10D24000000000000CD7070070B50E4B0E4CE41A1E
:10D25000A41000251E46A54204D056F82530984754
:10D260000135F8E700F044F8084C094BE41AA41023
:10D2700000251E46A54204D056F8253098470135B2
:10D28000F8E770BDB8280020B8280020BC2800208E
:10D29000B828002010B50A44441E914208D014F862
:10D2A000013F0878834201D0181A10BD0131F4E71C
:10D2B000002010BD10B5431E0A44914204D011F85D
:10D2C000014B03F8014FF8E710BD024403469342B7
:10D2D00002D003F8011BFAE77047034613F8012B4D
:10D2E000002AFBD1181A013870470000FEE700BF82
:10D2F000F8B500BFF8BC08BC9E467047F8B500BF43
:10D30000F8BC08BC9E4670470010000004000000F6
:10D3100001000000001000000400000001000000F7
:10D32000011104FC0400000000000000021104FCD4
:10D330000400000000000000032104FC04100000B1
:10D3400000000000041101FF0100000000000000C7
:10D35000051102FE0400000000000000061104FC9C
:10D360000400000000000000071104FC040000009D
:10D3700000000000081701FF22000000BCD40700D5
:10D38000091001FF010000005AD50700000000004D
:10D390000000000000000000011704FCA0000000D5
:10D3A00028D50700021704FCE4000000F8D40700A9
:10D3B000000000000000000000000000982F8A42DA
:10D3C00091443771CFFBC0B5A5DBB5E95BC25639D7
:10D3D000F111F159A4823F92D55E1CAB98AA07D8EF
:10D3E000015B8312BE853124C37D0C55745DBE7212
:10D3F000FEB1DE80A706DC9B74F19BC1C1699BE492
:10D400008647BEEFC69DC10FCCA10C246F2CE92D21
:10D41000AA84744ADCA9B05CDA88F97652513E9845
:10D420006DC631A8C82703B0C77F59BFF30BE0C64C
:10D430004791A7D55163CA0667292914850AB727DA
:10D4400038211B2EFC6D2C4D130D385354730A6577
:10D45000BB0A6A762EC9C281852C7292A1E8BFA24E
:10D460004B661AA8708B4BC2A3516CC719E892D1B6
:10D47000240699D685350EF470A06A1016C1A41939
:10D48000086C371E4C774827B5BCB034B30C1C3938
:10D490004AAAD84E4FCA9C5BF36F2E68EE828F74F7
:10D4A0006F63A5781478C8840802C78CFAFFBE9011
:10D4B000EB6C50A4F7A3F9BEF27871C6010100002D
:10D4C0000100000000000000020500002100000033
:10D4D000000000000000000000000000000000004C
:10D4E0000101000004000000000000000000000036
:10D4F000000000000000000001070000A000000084
:10D5000028D5070002010000010000000000000013
:10D5100003050000410000000000000000000000C2
:10D520000000000000000000011101FF01000000E8
:10D5300000000000021702FE9400000020D3070044
:10D54000031704FC04000000E0D407000000000002
:10D5500000000000000000000500000027BF65DAA1
:10D56000EDD1975836AFEEDE6F776D92ED80C70F35
:10D570000F45A5983C6822175B5B8119099347D139
:10D5800006F26066D5E704FE335BBCACC5FAE2E1A7
:10D59000F4837EB161312F0E8F2CDD2BFD820700CD
:10D5A000C5830700198407007D87070019870700D6
:10D5B000F9820700F5820700E5820700B9830700BA
:10D5C0009D84070027840700A7840700358407008F
:10D5D000B5830700B18307009F83070048D7070082
:10D5E00058D707000800000038D7070048D70700C1
:10D5F0000800000030D7070038D7070008000000F7
:10D600000100000750EADA308883B89F604F15F3B5
:10D610000000C98E446675546172670058D70700D0
:10D6200068D707000800000028D7070030D7070098
:10D6300008000000F99F07009D9F0700359F070025
:10D64000899E07000D9E0700F59E0700B99E070002
:10D65000D19D07000000000008200001FFFFFFFF30
:10D66000FFFFFFFFFFFFFFFF0000000000000000C2
:10D670000000000001000000FFFFFFFF512563FCD8
:10D68000C2CAB9F3849E17A7ADFAE6BCFFFFFFFF3D
:10D69000FFFFFFFF00000000FFFFFFFF96C298D8CA
:10D6A0004539A1F4A033EB2D817D0377F240A463CB
:10D6B000E5E6BCF847422CE1F2D1176BF551BF37D4
:10D6C0006840B6CBCE5E316B5733CE2B169E0F7CA7
:10D6D0004AEBE78E9B7F1AFEE242E34F4B60D22774
:10D6E0003E3CCE3BF6B053CCB0061D65BC8698766A
:10D6F00055BDEBB3E7933AAAD835C65ADBCB070042
:10D7000081CB07005DC707004300000058280020B8
:04D710000000000015
:08D71400DBA50700B596070034
:0CD71C00000000000300000095AD0700B5
:08D72800D9A807000000000071
:08D73000D18207000000000097
:10D738002D8D070000000000C1BE0700000000009A
:10D74800CDB207000000000081B207000000000011
:10D75800DD8507000000000005BD0700000000008F
:08D76800F4AAFF7F010000009C
:10D77000442E002020000000042E00204000000065
:10D780005CD5070040000000E42D002020000000D0
:10D79000FFFF01000090D003000000000000000027
:10D7A0000000000000000000000000000000000079
:10D7B000000000000000000008D707000000000083
:10D7C0000000000000000000000000000000000059
:10D7D0000000000000000000000000000000000049
:10D7E0000000000000000000000000000000000039
:10D7F00000000000000000002582070001820700F1
:04D800000000000024
:10D8040000000000000000000DAD07000010000043
:04D814000000080008
:020000020000FC
:020000041000EA
:041014000080070051
:0410180000E00700ED
:040000037000BF5D6D
:00000001FF
